{
	"data": {
		"bytecode": {
			"linkReferences": {},
			"object": "608060405234801561001057600080fd5b50611139806100206000396000f3fe608060405234801561001057600080fd5b50600436106100415760003560e01c80633011dffc1461004657806386d1a69f14610062578063daf498631461006c575b600080fd5b610060600480360381019061005b9190610952565b6100a2565b005b61006a6103b0565b005b610086600480360381019061008191906109df565b6106f4565b6040516100999796959493929190610a2a565b60405180910390f35b600073ffffffffffffffffffffffffffffffffffffffff168673ffffffffffffffffffffffffffffffffffffffff1603610111576040517f08c379a000000000000000000000000000000000000000000000000000000000815260040161010890610b1c565b60405180910390fd5b83851115610154576040517f08c379a000000000000000000000000000000000000000000000000000000000815260040161014b90610bae565b60405180910390fd5b4284846101619190610bfd565b116101a1576040517f08c379a000000000000000000000000000000000000000000000000000000000815260040161019890610ca3565b60405180910390fd5b60008060008873ffffffffffffffffffffffffffffffffffffffff1673ffffffffffffffffffffffffffffffffffffffff1681526020019081526020016000209050600073ffffffffffffffffffffffffffffffffffffffff168160000160009054906101000a900473ffffffffffffffffffffffffffffffffffffffff1673ffffffffffffffffffffffffffffffffffffffff1614610276576040517f08c379a000000000000000000000000000000000000000000000000000000000815260040161026d90610d35565b60405180910390fd5b868160000160006101000a81548173ffffffffffffffffffffffffffffffffffffffff021916908373ffffffffffffffffffffffffffffffffffffffff160217905550858160010181905550848160020181905550838160030181905550828160040181905550818160060160006101000a81548173ffffffffffffffffffffffffffffffffffffffff021916908373ffffffffffffffffffffffffffffffffffffffff16021790555060008290508073ffffffffffffffffffffffffffffffffffffffff166323b872dd3330876040518463ffffffff1660e01b815260040161036293929190610d55565b6020604051808303816000875af1158015610381573d6000803e3d6000fd5b505050506040513d601f19601f820116820180604052508101906103a59190610dc4565b505050505050505050565b60008060003373ffffffffffffffffffffffffffffffffffffffff1673ffffffffffffffffffffffffffffffffffffffff1681526020019081526020016000209050600073ffffffffffffffffffffffffffffffffffffffff168160000160009054906101000a900473ffffffffffffffffffffffffffffffffffffffff1673ffffffffffffffffffffffffffffffffffffffff1603610485576040517f08c379a000000000000000000000000000000000000000000000000000000000815260040161047c90610e63565b60405180910390fd5b80600301544210156104cc576040517f08c379a00000000000000000000000000000000000000000000000000000000081526004016104c390610ef5565b60405180910390fd5b60008160060160009054906101000a900473ffffffffffffffffffffffffffffffffffffffff16905060006105e9836040518060e00160405290816000820160009054906101000a900473ffffffffffffffffffffffffffffffffffffffff1673ffffffffffffffffffffffffffffffffffffffff1673ffffffffffffffffffffffffffffffffffffffff16815260200160018201548152602001600282015481526020016003820154815260200160048201548152602001600582015481526020016006820160009054906101000a900473ffffffffffffffffffffffffffffffffffffffff1673ffffffffffffffffffffffffffffffffffffffff1673ffffffffffffffffffffffffffffffffffffffff1681525050610776565b905060008360050154826105fd9190610f15565b905060008111610642576040517f08c379a000000000000000000000000000000000000000000000000000000000815260040161063990610fbb565b60405180910390fd5b8184600501819055508273ffffffffffffffffffffffffffffffffffffffff1663a9059cbb8560000160009054906101000a900473ffffffffffffffffffffffffffffffffffffffff16836040518363ffffffff1660e01b81526004016106aa929190610fdb565b6020604051808303816000875af11580156106c9573d6000803e3d6000fd5b505050506040513d601f19601f820116820180604052508101906106ed9190610dc4565b5050505050565b60006020528060005260406000206000915090508060000160009054906101000a900473ffffffffffffffffffffffffffffffffffffffff16908060010154908060020154908060030154908060040154908060050154908060060160009054906101000a900473ffffffffffffffffffffffffffffffffffffffff16905087565b6000808260c00151905060008173ffffffffffffffffffffffffffffffffffffffff166370a08231306040518263ffffffff1660e01b81526004016107bb9190611004565b602060405180830381865afa1580156107d8573d6000803e3d6000fd5b505050506040513d601f19601f820116820180604052508101906107fc9190611034565b90506000846040015185606001516108149190610bfd565b90508460200151856060015161082a9190610bfd565b42101561083d57600093505050506108b4565b80421061085357846080015193505050506108b4565b60008560400151606487602001518860600151426108719190610f15565b61087b9190610f15565b6108859190611061565b61088f91906110d2565b905060648187608001516108a39190611061565b6108ad91906110d2565b9450505050505b919050565b600080fd5b600073ffffffffffffffffffffffffffffffffffffffff82169050919050565b60006108e9826108be565b9050919050565b6108f9816108de565b811461090457600080fd5b50565b600081359050610916816108f0565b92915050565b6000819050919050565b61092f8161091c565b811461093a57600080fd5b50565b60008135905061094c81610926565b92915050565b60008060008060008060c0878903121561096f5761096e6108b9565b5b600061097d89828a01610907565b965050602061098e89828a0161093d565b955050604061099f89828a0161093d565b94505060606109b089828a0161093d565b93505060806109c189828a0161093d565b92505060a06109d289828a01610907565b9150509295509295509295565b6000602082840312156109f5576109f46108b9565b5b6000610a0384828501610907565b91505092915050565b610a15816108de565b82525050565b610a248161091c565b82525050565b600060e082019050610a3f600083018a610a0c565b610a4c6020830189610a1b565b610a596040830188610a1b565b610a666060830187610a1b565b610a736080830186610a1b565b610a8060a0830185610a1b565b610a8d60c0830184610a0c565b98975050505050505050565b600082825260208201905092915050565b7f546f6b656e56657374696e673a2062656e65666963696172792069732074686560008201527f207a65726f206164647265737300000000000000000000000000000000000000602082015250565b6000610b06602d83610a99565b9150610b1182610aaa565b604082019050919050565b60006020820190508181036000830152610b3581610af9565b9050919050565b7f546f6b656e56657374696e673a20636c696666206475726174696f6e2065786360008201527f656564732076657374696e67206475726174696f6e0000000000000000000000602082015250565b6000610b98603583610a99565b9150610ba382610b3c565b604082019050919050565b60006020820190508181036000830152610bc781610b8b565b9050919050565b7f4e487b7100000000000000000000000000000000000000000000000000000000600052601160045260246000fd5b6000610c088261091c565b9150610c138361091c565b9250828201905080821115610c2b57610c2a610bce565b5b92915050565b7f546f6b656e56657374696e673a2076657374696e6720656e642074696d65737460008201527f616d702070726563656465732063757272656e742074696d657374616d700000602082015250565b6000610c8d603e83610a99565b9150610c9882610c31565b604082019050919050565b60006020820190508181036000830152610cbc81610c80565b9050919050565b7f546f6b656e56657374696e673a2076657374696e6720616c726561647920657860008201527f6973747320666f72207468652062656e65666963696172790000000000000000602082015250565b6000610d1f603883610a99565b9150610d2a82610cc3565b604082019050919050565b60006020820190508181036000830152610d4e81610d12565b9050919050565b6000606082019050610d6a6000830186610a0c565b610d776020830185610a0c565b610d846040830184610a1b565b949350505050565b60008115159050919050565b610da181610d8c565b8114610dac57600080fd5b50565b600081519050610dbe81610d98565b92915050565b600060208284031215610dda57610dd96108b9565b5b6000610de884828501610daf565b91505092915050565b7f546f6b656e56657374696e673a206e6f2076657374696e6720666f756e64206660008201527f6f722073656e6465720000000000000000000000000000000000000000000000602082015250565b6000610e4d602983610a99565b9150610e5882610df1565b604082019050919050565b60006020820190508181036000830152610e7c81610e40565b9050919050565b7f546f6b656e56657374696e673a2076657374696e6720686173206e6f7420737460008201527f6172746564207965740000000000000000000000000000000000000000000000602082015250565b6000610edf602983610a99565b9150610eea82610e83565b604082019050919050565b60006020820190508181036000830152610f0e81610ed2565b9050919050565b6000610f208261091c565b9150610f2b8361091c565b9250828203905081811115610f4357610f42610bce565b5b92915050565b7f546f6b656e56657374696e673a206e6f20746f6b656e7320746f2072656c656160008201527f7365000000000000000000000000000000000000000000000000000000000000602082015250565b6000610fa5602283610a99565b9150610fb082610f49565b604082019050919050565b60006020820190508181036000830152610fd481610f98565b9050919050565b6000604082019050610ff06000830185610a0c565b610ffd6020830184610a1b565b9392505050565b60006020820190506110196000830184610a0c565b92915050565b60008151905061102e81610926565b92915050565b60006020828403121561104a576110496108b9565b5b60006110588482850161101f565b91505092915050565b600061106c8261091c565b91506110778361091c565b92508282026110858161091c565b9150828204841483151761109c5761109b610bce565b5b5092915050565b7f4e487b7100000000000000000000000000000000000000000000000000000000600052601260045260246000fd5b60006110dd8261091c565b91506110e88361091c565b9250826110f8576110f76110a3565b5b82820490509291505056fea2646970667358221220c2122ae4a05b5cf375cbd1259feea751a9cf54ae6c0c8d0ac4938c9fef81121764736f6c63430008120033",
			"opcodes": "PUSH1 0x80 PUSH1 0x40 MSTORE CALLVALUE DUP1 ISZERO PUSH2 0x10 JUMPI PUSH1 0x0 DUP1 REVERT JUMPDEST POP PUSH2 0x1139 DUP1 PUSH2 0x20 PUSH1 0x0 CODECOPY PUSH1 0x0 RETURN INVALID PUSH1 0x80 PUSH1 0x40 MSTORE CALLVALUE DUP1 ISZERO PUSH2 0x10 JUMPI PUSH1 0x0 DUP1 REVERT JUMPDEST POP PUSH1 0x4 CALLDATASIZE LT PUSH2 0x41 JUMPI PUSH1 0x0 CALLDATALOAD PUSH1 0xE0 SHR DUP1 PUSH4 0x3011DFFC EQ PUSH2 0x46 JUMPI DUP1 PUSH4 0x86D1A69F EQ PUSH2 0x62 JUMPI DUP1 PUSH4 0xDAF49863 EQ PUSH2 0x6C JUMPI JUMPDEST PUSH1 0x0 DUP1 REVERT JUMPDEST PUSH2 0x60 PUSH1 0x4 DUP1 CALLDATASIZE SUB DUP2 ADD SWAP1 PUSH2 0x5B SWAP2 SWAP1 PUSH2 0x952 JUMP JUMPDEST PUSH2 0xA2 JUMP JUMPDEST STOP JUMPDEST PUSH2 0x6A PUSH2 0x3B0 JUMP JUMPDEST STOP JUMPDEST PUSH2 0x86 PUSH1 0x4 DUP1 CALLDATASIZE SUB DUP2 ADD SWAP1 PUSH2 0x81 SWAP2 SWAP1 PUSH2 0x9DF JUMP JUMPDEST PUSH2 0x6F4 JUMP JUMPDEST PUSH1 0x40 MLOAD PUSH2 0x99 SWAP8 SWAP7 SWAP6 SWAP5 SWAP4 SWAP3 SWAP2 SWAP1 PUSH2 0xA2A JUMP JUMPDEST PUSH1 0x40 MLOAD DUP1 SWAP2 SUB SWAP1 RETURN JUMPDEST PUSH1 0x0 PUSH20 0xFFFFFFFFFFFFFFFFFFFFFFFFFFFFFFFFFFFFFFFF AND DUP7 PUSH20 0xFFFFFFFFFFFFFFFFFFFFFFFFFFFFFFFFFFFFFFFF AND SUB PUSH2 0x111 JUMPI PUSH1 0x40 MLOAD PUSH32 0x8C379A000000000000000000000000000000000000000000000000000000000 DUP2 MSTORE PUSH1 0x4 ADD PUSH2 0x108 SWAP1 PUSH2 0xB1C JUMP JUMPDEST PUSH1 0x40 MLOAD DUP1 SWAP2 SUB SWAP1 REVERT JUMPDEST DUP4 DUP6 GT ISZERO PUSH2 0x154 JUMPI PUSH1 0x40 MLOAD PUSH32 0x8C379A000000000000000000000000000000000000000000000000000000000 DUP2 MSTORE PUSH1 0x4 ADD PUSH2 0x14B SWAP1 PUSH2 0xBAE JUMP JUMPDEST PUSH1 0x40 MLOAD DUP1 SWAP2 SUB SWAP1 REVERT JUMPDEST TIMESTAMP DUP5 DUP5 PUSH2 0x161 SWAP2 SWAP1 PUSH2 0xBFD JUMP JUMPDEST GT PUSH2 0x1A1 JUMPI PUSH1 0x40 MLOAD PUSH32 0x8C379A000000000000000000000000000000000000000000000000000000000 DUP2 MSTORE PUSH1 0x4 ADD PUSH2 0x198 SWAP1 PUSH2 0xCA3 JUMP JUMPDEST PUSH1 0x40 MLOAD DUP1 SWAP2 SUB SWAP1 REVERT JUMPDEST PUSH1 0x0 DUP1 PUSH1 0x0 DUP9 PUSH20 0xFFFFFFFFFFFFFFFFFFFFFFFFFFFFFFFFFFFFFFFF AND PUSH20 0xFFFFFFFFFFFFFFFFFFFFFFFFFFFFFFFFFFFFFFFF AND DUP2 MSTORE PUSH1 0x20 ADD SWAP1 DUP2 MSTORE PUSH1 0x20 ADD PUSH1 0x0 KECCAK256 SWAP1 POP PUSH1 0x0 PUSH20 0xFFFFFFFFFFFFFFFFFFFFFFFFFFFFFFFFFFFFFFFF AND DUP2 PUSH1 0x0 ADD PUSH1 0x0 SWAP1 SLOAD SWAP1 PUSH2 0x100 EXP SWAP1 DIV PUSH20 0xFFFFFFFFFFFFFFFFFFFFFFFFFFFFFFFFFFFFFFFF AND PUSH20 0xFFFFFFFFFFFFFFFFFFFFFFFFFFFFFFFFFFFFFFFF AND EQ PUSH2 0x276 JUMPI PUSH1 0x40 MLOAD PUSH32 0x8C379A000000000000000000000000000000000000000000000000000000000 DUP2 MSTORE PUSH1 0x4 ADD PUSH2 0x26D SWAP1 PUSH2 0xD35 JUMP JUMPDEST PUSH1 0x40 MLOAD DUP1 SWAP2 SUB SWAP1 REVERT JUMPDEST DUP7 DUP2 PUSH1 0x0 ADD PUSH1 0x0 PUSH2 0x100 EXP DUP2 SLOAD DUP2 PUSH20 0xFFFFFFFFFFFFFFFFFFFFFFFFFFFFFFFFFFFFFFFF MUL NOT AND SWAP1 DUP4 PUSH20 0xFFFFFFFFFFFFFFFFFFFFFFFFFFFFFFFFFFFFFFFF AND MUL OR SWAP1 SSTORE POP DUP6 DUP2 PUSH1 0x1 ADD DUP2 SWAP1 SSTORE POP DUP5 DUP2 PUSH1 0x2 ADD DUP2 SWAP1 SSTORE POP DUP4 DUP2 PUSH1 0x3 ADD DUP2 SWAP1 SSTORE POP DUP3 DUP2 PUSH1 0x4 ADD DUP2 SWAP1 SSTORE POP DUP2 DUP2 PUSH1 0x6 ADD PUSH1 0x0 PUSH2 0x100 EXP DUP2 SLOAD DUP2 PUSH20 0xFFFFFFFFFFFFFFFFFFFFFFFFFFFFFFFFFFFFFFFF MUL NOT AND SWAP1 DUP4 PUSH20 0xFFFFFFFFFFFFFFFFFFFFFFFFFFFFFFFFFFFFFFFF AND MUL OR SWAP1 SSTORE POP PUSH1 0x0 DUP3 SWAP1 POP DUP1 PUSH20 0xFFFFFFFFFFFFFFFFFFFFFFFFFFFFFFFFFFFFFFFF AND PUSH4 0x23B872DD CALLER ADDRESS DUP8 PUSH1 0x40 MLOAD DUP5 PUSH4 0xFFFFFFFF AND PUSH1 0xE0 SHL DUP2 MSTORE PUSH1 0x4 ADD PUSH2 0x362 SWAP4 SWAP3 SWAP2 SWAP1 PUSH2 0xD55 JUMP JUMPDEST PUSH1 0x20 PUSH1 0x40 MLOAD DUP1 DUP4 SUB DUP2 PUSH1 0x0 DUP8 GAS CALL ISZERO DUP1 ISZERO PUSH2 0x381 JUMPI RETURNDATASIZE PUSH1 0x0 DUP1 RETURNDATACOPY RETURNDATASIZE PUSH1 0x0 REVERT JUMPDEST POP POP POP POP PUSH1 0x40 MLOAD RETURNDATASIZE PUSH1 0x1F NOT PUSH1 0x1F DUP3 ADD AND DUP3 ADD DUP1 PUSH1 0x40 MSTORE POP DUP2 ADD SWAP1 PUSH2 0x3A5 SWAP2 SWAP1 PUSH2 0xDC4 JUMP JUMPDEST POP POP POP POP POP POP POP POP POP JUMP JUMPDEST PUSH1 0x0 DUP1 PUSH1 0x0 CALLER PUSH20 0xFFFFFFFFFFFFFFFFFFFFFFFFFFFFFFFFFFFFFFFF AND PUSH20 0xFFFFFFFFFFFFFFFFFFFFFFFFFFFFFFFFFFFFFFFF AND DUP2 MSTORE PUSH1 0x20 ADD SWAP1 DUP2 MSTORE PUSH1 0x20 ADD PUSH1 0x0 KECCAK256 SWAP1 POP PUSH1 0x0 PUSH20 0xFFFFFFFFFFFFFFFFFFFFFFFFFFFFFFFFFFFFFFFF AND DUP2 PUSH1 0x0 ADD PUSH1 0x0 SWAP1 SLOAD SWAP1 PUSH2 0x100 EXP SWAP1 DIV PUSH20 0xFFFFFFFFFFFFFFFFFFFFFFFFFFFFFFFFFFFFFFFF AND PUSH20 0xFFFFFFFFFFFFFFFFFFFFFFFFFFFFFFFFFFFFFFFF AND SUB PUSH2 0x485 JUMPI PUSH1 0x40 MLOAD PUSH32 0x8C379A000000000000000000000000000000000000000000000000000000000 DUP2 MSTORE PUSH1 0x4 ADD PUSH2 0x47C SWAP1 PUSH2 0xE63 JUMP JUMPDEST PUSH1 0x40 MLOAD DUP1 SWAP2 SUB SWAP1 REVERT JUMPDEST DUP1 PUSH1 0x3 ADD SLOAD TIMESTAMP LT ISZERO PUSH2 0x4CC JUMPI PUSH1 0x40 MLOAD PUSH32 0x8C379A000000000000000000000000000000000000000000000000000000000 DUP2 MSTORE PUSH1 0x4 ADD PUSH2 0x4C3 SWAP1 PUSH2 0xEF5 JUMP JUMPDEST PUSH1 0x40 MLOAD DUP1 SWAP2 SUB SWAP1 REVERT JUMPDEST PUSH1 0x0 DUP2 PUSH1 0x6 ADD PUSH1 0x0 SWAP1 SLOAD SWAP1 PUSH2 0x100 EXP SWAP1 DIV PUSH20 0xFFFFFFFFFFFFFFFFFFFFFFFFFFFFFFFFFFFFFFFF AND SWAP1 POP PUSH1 0x0 PUSH2 0x5E9 DUP4 PUSH1 0x40 MLOAD DUP1 PUSH1 0xE0 ADD PUSH1 0x40 MSTORE SWAP1 DUP2 PUSH1 0x0 DUP3 ADD PUSH1 0x0 SWAP1 SLOAD SWAP1 PUSH2 0x100 EXP SWAP1 DIV PUSH20 0xFFFFFFFFFFFFFFFFFFFFFFFFFFFFFFFFFFFFFFFF AND PUSH20 0xFFFFFFFFFFFFFFFFFFFFFFFFFFFFFFFFFFFFFFFF AND PUSH20 0xFFFFFFFFFFFFFFFFFFFFFFFFFFFFFFFFFFFFFFFF AND DUP2 MSTORE PUSH1 0x20 ADD PUSH1 0x1 DUP3 ADD SLOAD DUP2 MSTORE PUSH1 0x20 ADD PUSH1 0x2 DUP3 ADD SLOAD DUP2 MSTORE PUSH1 0x20 ADD PUSH1 0x3 DUP3 ADD SLOAD DUP2 MSTORE PUSH1 0x20 ADD PUSH1 0x4 DUP3 ADD SLOAD DUP2 MSTORE PUSH1 0x20 ADD PUSH1 0x5 DUP3 ADD SLOAD DUP2 MSTORE PUSH1 0x20 ADD PUSH1 0x6 DUP3 ADD PUSH1 0x0 SWAP1 SLOAD SWAP1 PUSH2 0x100 EXP SWAP1 DIV PUSH20 0xFFFFFFFFFFFFFFFFFFFFFFFFFFFFFFFFFFFFFFFF AND PUSH20 0xFFFFFFFFFFFFFFFFFFFFFFFFFFFFFFFFFFFFFFFF AND PUSH20 0xFFFFFFFFFFFFFFFFFFFFFFFFFFFFFFFFFFFFFFFF AND DUP2 MSTORE POP POP PUSH2 0x776 JUMP JUMPDEST SWAP1 POP PUSH1 0x0 DUP4 PUSH1 0x5 ADD SLOAD DUP3 PUSH2 0x5FD SWAP2 SWAP1 PUSH2 0xF15 JUMP JUMPDEST SWAP1 POP PUSH1 0x0 DUP2 GT PUSH2 0x642 JUMPI PUSH1 0x40 MLOAD PUSH32 0x8C379A000000000000000000000000000000000000000000000000000000000 DUP2 MSTORE PUSH1 0x4 ADD PUSH2 0x639 SWAP1 PUSH2 0xFBB JUMP JUMPDEST PUSH1 0x40 MLOAD DUP1 SWAP2 SUB SWAP1 REVERT JUMPDEST DUP2 DUP5 PUSH1 0x5 ADD DUP2 SWAP1 SSTORE POP DUP3 PUSH20 0xFFFFFFFFFFFFFFFFFFFFFFFFFFFFFFFFFFFFFFFF AND PUSH4 0xA9059CBB DUP6 PUSH1 0x0 ADD PUSH1 0x0 SWAP1 SLOAD SWAP1 PUSH2 0x100 EXP SWAP1 DIV PUSH20 0xFFFFFFFFFFFFFFFFFFFFFFFFFFFFFFFFFFFFFFFF AND DUP4 PUSH1 0x40 MLOAD DUP4 PUSH4 0xFFFFFFFF AND PUSH1 0xE0 SHL DUP2 MSTORE PUSH1 0x4 ADD PUSH2 0x6AA SWAP3 SWAP2 SWAP1 PUSH2 0xFDB JUMP JUMPDEST PUSH1 0x20 PUSH1 0x40 MLOAD DUP1 DUP4 SUB DUP2 PUSH1 0x0 DUP8 GAS CALL ISZERO DUP1 ISZERO PUSH2 0x6C9 JUMPI RETURNDATASIZE PUSH1 0x0 DUP1 RETURNDATACOPY RETURNDATASIZE PUSH1 0x0 REVERT JUMPDEST POP POP POP POP PUSH1 0x40 MLOAD RETURNDATASIZE PUSH1 0x1F NOT PUSH1 0x1F DUP3 ADD AND DUP3 ADD DUP1 PUSH1 0x40 MSTORE POP DUP2 ADD SWAP1 PUSH2 0x6ED SWAP2 SWAP1 PUSH2 0xDC4 JUMP JUMPDEST POP POP POP POP POP JUMP JUMPDEST PUSH1 0x0 PUSH1 0x20 MSTORE DUP1 PUSH1 0x0 MSTORE PUSH1 0x40 PUSH1 0x0 KECCAK256 PUSH1 0x0 SWAP2 POP SWAP1 POP DUP1 PUSH1 0x0 ADD PUSH1 0x0 SWAP1 SLOAD SWAP1 PUSH2 0x100 EXP SWAP1 DIV PUSH20 0xFFFFFFFFFFFFFFFFFFFFFFFFFFFFFFFFFFFFFFFF AND SWAP1 DUP1 PUSH1 0x1 ADD SLOAD SWAP1 DUP1 PUSH1 0x2 ADD SLOAD SWAP1 DUP1 PUSH1 0x3 ADD SLOAD SWAP1 DUP1 PUSH1 0x4 ADD SLOAD SWAP1 DUP1 PUSH1 0x5 ADD SLOAD SWAP1 DUP1 PUSH1 0x6 ADD PUSH1 0x0 SWAP1 SLOAD SWAP1 PUSH2 0x100 EXP SWAP1 DIV PUSH20 0xFFFFFFFFFFFFFFFFFFFFFFFFFFFFFFFFFFFFFFFF AND SWAP1 POP DUP8 JUMP JUMPDEST PUSH1 0x0 DUP1 DUP3 PUSH1 0xC0 ADD MLOAD SWAP1 POP PUSH1 0x0 DUP2 PUSH20 0xFFFFFFFFFFFFFFFFFFFFFFFFFFFFFFFFFFFFFFFF AND PUSH4 0x70A08231 ADDRESS PUSH1 0x40 MLOAD DUP3 PUSH4 0xFFFFFFFF AND PUSH1 0xE0 SHL DUP2 MSTORE PUSH1 0x4 ADD PUSH2 0x7BB SWAP2 SWAP1 PUSH2 0x1004 JUMP JUMPDEST PUSH1 0x20 PUSH1 0x40 MLOAD DUP1 DUP4 SUB DUP2 DUP7 GAS STATICCALL ISZERO DUP1 ISZERO PUSH2 0x7D8 JUMPI RETURNDATASIZE PUSH1 0x0 DUP1 RETURNDATACOPY RETURNDATASIZE PUSH1 0x0 REVERT JUMPDEST POP POP POP POP PUSH1 0x40 MLOAD RETURNDATASIZE PUSH1 0x1F NOT PUSH1 0x1F DUP3 ADD AND DUP3 ADD DUP1 PUSH1 0x40 MSTORE POP DUP2 ADD SWAP1 PUSH2 0x7FC SWAP2 SWAP1 PUSH2 0x1034 JUMP JUMPDEST SWAP1 POP PUSH1 0x0 DUP5 PUSH1 0x40 ADD MLOAD DUP6 PUSH1 0x60 ADD MLOAD PUSH2 0x814 SWAP2 SWAP1 PUSH2 0xBFD JUMP JUMPDEST SWAP1 POP DUP5 PUSH1 0x20 ADD MLOAD DUP6 PUSH1 0x60 ADD MLOAD PUSH2 0x82A SWAP2 SWAP1 PUSH2 0xBFD JUMP JUMPDEST TIMESTAMP LT ISZERO PUSH2 0x83D JUMPI PUSH1 0x0 SWAP4 POP POP POP POP PUSH2 0x8B4 JUMP JUMPDEST DUP1 TIMESTAMP LT PUSH2 0x853 JUMPI DUP5 PUSH1 0x80 ADD MLOAD SWAP4 POP POP POP POP PUSH2 0x8B4 JUMP JUMPDEST PUSH1 0x0 DUP6 PUSH1 0x40 ADD MLOAD PUSH1 0x64 DUP8 PUSH1 0x20 ADD MLOAD DUP9 PUSH1 0x60 ADD MLOAD TIMESTAMP PUSH2 0x871 SWAP2 SWAP1 PUSH2 0xF15 JUMP JUMPDEST PUSH2 0x87B SWAP2 SWAP1 PUSH2 0xF15 JUMP JUMPDEST PUSH2 0x885 SWAP2 SWAP1 PUSH2 0x1061 JUMP JUMPDEST PUSH2 0x88F SWAP2 SWAP1 PUSH2 0x10D2 JUMP JUMPDEST SWAP1 POP PUSH1 0x64 DUP2 DUP8 PUSH1 0x80 ADD MLOAD PUSH2 0x8A3 SWAP2 SWAP1 PUSH2 0x1061 JUMP JUMPDEST PUSH2 0x8AD SWAP2 SWAP1 PUSH2 0x10D2 JUMP JUMPDEST SWAP5 POP POP POP POP POP JUMPDEST SWAP2 SWAP1 POP JUMP JUMPDEST PUSH1 0x0 DUP1 REVERT JUMPDEST PUSH1 0x0 PUSH20 0xFFFFFFFFFFFFFFFFFFFFFFFFFFFFFFFFFFFFFFFF DUP3 AND SWAP1 POP SWAP2 SWAP1 POP JUMP JUMPDEST PUSH1 0x0 PUSH2 0x8E9 DUP3 PUSH2 0x8BE JUMP JUMPDEST SWAP1 POP SWAP2 SWAP1 POP JUMP JUMPDEST PUSH2 0x8F9 DUP2 PUSH2 0x8DE JUMP JUMPDEST DUP2 EQ PUSH2 0x904 JUMPI PUSH1 0x0 DUP1 REVERT JUMPDEST POP JUMP JUMPDEST PUSH1 0x0 DUP2 CALLDATALOAD SWAP1 POP PUSH2 0x916 DUP2 PUSH2 0x8F0 JUMP JUMPDEST SWAP3 SWAP2 POP POP JUMP JUMPDEST PUSH1 0x0 DUP2 SWAP1 POP SWAP2 SWAP1 POP JUMP JUMPDEST PUSH2 0x92F DUP2 PUSH2 0x91C JUMP JUMPDEST DUP2 EQ PUSH2 0x93A JUMPI PUSH1 0x0 DUP1 REVERT JUMPDEST POP JUMP JUMPDEST PUSH1 0x0 DUP2 CALLDATALOAD SWAP1 POP PUSH2 0x94C DUP2 PUSH2 0x926 JUMP JUMPDEST SWAP3 SWAP2 POP POP JUMP JUMPDEST PUSH1 0x0 DUP1 PUSH1 0x0 DUP1 PUSH1 0x0 DUP1 PUSH1 0xC0 DUP8 DUP10 SUB SLT ISZERO PUSH2 0x96F JUMPI PUSH2 0x96E PUSH2 0x8B9 JUMP JUMPDEST JUMPDEST PUSH1 0x0 PUSH2 0x97D DUP10 DUP3 DUP11 ADD PUSH2 0x907 JUMP JUMPDEST SWAP7 POP POP PUSH1 0x20 PUSH2 0x98E DUP10 DUP3 DUP11 ADD PUSH2 0x93D JUMP JUMPDEST SWAP6 POP POP PUSH1 0x40 PUSH2 0x99F DUP10 DUP3 DUP11 ADD PUSH2 0x93D JUMP JUMPDEST SWAP5 POP POP PUSH1 0x60 PUSH2 0x9B0 DUP10 DUP3 DUP11 ADD PUSH2 0x93D JUMP JUMPDEST SWAP4 POP POP PUSH1 0x80 PUSH2 0x9C1 DUP10 DUP3 DUP11 ADD PUSH2 0x93D JUMP JUMPDEST SWAP3 POP POP PUSH1 0xA0 PUSH2 0x9D2 DUP10 DUP3 DUP11 ADD PUSH2 0x907 JUMP JUMPDEST SWAP2 POP POP SWAP3 SWAP6 POP SWAP3 SWAP6 POP SWAP3 SWAP6 JUMP JUMPDEST PUSH1 0x0 PUSH1 0x20 DUP3 DUP5 SUB SLT ISZERO PUSH2 0x9F5 JUMPI PUSH2 0x9F4 PUSH2 0x8B9 JUMP JUMPDEST JUMPDEST PUSH1 0x0 PUSH2 0xA03 DUP5 DUP3 DUP6 ADD PUSH2 0x907 JUMP JUMPDEST SWAP2 POP POP SWAP3 SWAP2 POP POP JUMP JUMPDEST PUSH2 0xA15 DUP2 PUSH2 0x8DE JUMP JUMPDEST DUP3 MSTORE POP POP JUMP JUMPDEST PUSH2 0xA24 DUP2 PUSH2 0x91C JUMP JUMPDEST DUP3 MSTORE POP POP JUMP JUMPDEST PUSH1 0x0 PUSH1 0xE0 DUP3 ADD SWAP1 POP PUSH2 0xA3F PUSH1 0x0 DUP4 ADD DUP11 PUSH2 0xA0C JUMP JUMPDEST PUSH2 0xA4C PUSH1 0x20 DUP4 ADD DUP10 PUSH2 0xA1B JUMP JUMPDEST PUSH2 0xA59 PUSH1 0x40 DUP4 ADD DUP9 PUSH2 0xA1B JUMP JUMPDEST PUSH2 0xA66 PUSH1 0x60 DUP4 ADD DUP8 PUSH2 0xA1B JUMP JUMPDEST PUSH2 0xA73 PUSH1 0x80 DUP4 ADD DUP7 PUSH2 0xA1B JUMP JUMPDEST PUSH2 0xA80 PUSH1 0xA0 DUP4 ADD DUP6 PUSH2 0xA1B JUMP JUMPDEST PUSH2 0xA8D PUSH1 0xC0 DUP4 ADD DUP5 PUSH2 0xA0C JUMP JUMPDEST SWAP9 SWAP8 POP POP POP POP POP POP POP POP JUMP JUMPDEST PUSH1 0x0 DUP3 DUP3 MSTORE PUSH1 0x20 DUP3 ADD SWAP1 POP SWAP3 SWAP2 POP POP JUMP JUMPDEST PUSH32 0x546F6B656E56657374696E673A2062656E656669636961727920697320746865 PUSH1 0x0 DUP3 ADD MSTORE PUSH32 0x207A65726F206164647265737300000000000000000000000000000000000000 PUSH1 0x20 DUP3 ADD MSTORE POP JUMP JUMPDEST PUSH1 0x0 PUSH2 0xB06 PUSH1 0x2D DUP4 PUSH2 0xA99 JUMP JUMPDEST SWAP2 POP PUSH2 0xB11 DUP3 PUSH2 0xAAA JUMP JUMPDEST PUSH1 0x40 DUP3 ADD SWAP1 POP SWAP2 SWAP1 POP JUMP JUMPDEST PUSH1 0x0 PUSH1 0x20 DUP3 ADD SWAP1 POP DUP2 DUP2 SUB PUSH1 0x0 DUP4 ADD MSTORE PUSH2 0xB35 DUP2 PUSH2 0xAF9 JUMP JUMPDEST SWAP1 POP SWAP2 SWAP1 POP JUMP JUMPDEST PUSH32 0x546F6B656E56657374696E673A20636C696666206475726174696F6E20657863 PUSH1 0x0 DUP3 ADD MSTORE PUSH32 0x656564732076657374696E67206475726174696F6E0000000000000000000000 PUSH1 0x20 DUP3 ADD MSTORE POP JUMP JUMPDEST PUSH1 0x0 PUSH2 0xB98 PUSH1 0x35 DUP4 PUSH2 0xA99 JUMP JUMPDEST SWAP2 POP PUSH2 0xBA3 DUP3 PUSH2 0xB3C JUMP JUMPDEST PUSH1 0x40 DUP3 ADD SWAP1 POP SWAP2 SWAP1 POP JUMP JUMPDEST PUSH1 0x0 PUSH1 0x20 DUP3 ADD SWAP1 POP DUP2 DUP2 SUB PUSH1 0x0 DUP4 ADD MSTORE PUSH2 0xBC7 DUP2 PUSH2 0xB8B JUMP JUMPDEST SWAP1 POP SWAP2 SWAP1 POP JUMP JUMPDEST PUSH32 0x4E487B7100000000000000000000000000000000000000000000000000000000 PUSH1 0x0 MSTORE PUSH1 0x11 PUSH1 0x4 MSTORE PUSH1 0x24 PUSH1 0x0 REVERT JUMPDEST PUSH1 0x0 PUSH2 0xC08 DUP3 PUSH2 0x91C JUMP JUMPDEST SWAP2 POP PUSH2 0xC13 DUP4 PUSH2 0x91C JUMP JUMPDEST SWAP3 POP DUP3 DUP3 ADD SWAP1 POP DUP1 DUP3 GT ISZERO PUSH2 0xC2B JUMPI PUSH2 0xC2A PUSH2 0xBCE JUMP JUMPDEST JUMPDEST SWAP3 SWAP2 POP POP JUMP JUMPDEST PUSH32 0x546F6B656E56657374696E673A2076657374696E6720656E642074696D657374 PUSH1 0x0 DUP3 ADD MSTORE PUSH32 0x616D702070726563656465732063757272656E742074696D657374616D700000 PUSH1 0x20 DUP3 ADD MSTORE POP JUMP JUMPDEST PUSH1 0x0 PUSH2 0xC8D PUSH1 0x3E DUP4 PUSH2 0xA99 JUMP JUMPDEST SWAP2 POP PUSH2 0xC98 DUP3 PUSH2 0xC31 JUMP JUMPDEST PUSH1 0x40 DUP3 ADD SWAP1 POP SWAP2 SWAP1 POP JUMP JUMPDEST PUSH1 0x0 PUSH1 0x20 DUP3 ADD SWAP1 POP DUP2 DUP2 SUB PUSH1 0x0 DUP4 ADD MSTORE PUSH2 0xCBC DUP2 PUSH2 0xC80 JUMP JUMPDEST SWAP1 POP SWAP2 SWAP1 POP JUMP JUMPDEST PUSH32 0x546F6B656E56657374696E673A2076657374696E6720616C7265616479206578 PUSH1 0x0 DUP3 ADD MSTORE PUSH32 0x6973747320666F72207468652062656E65666963696172790000000000000000 PUSH1 0x20 DUP3 ADD MSTORE POP JUMP JUMPDEST PUSH1 0x0 PUSH2 0xD1F PUSH1 0x38 DUP4 PUSH2 0xA99 JUMP JUMPDEST SWAP2 POP PUSH2 0xD2A DUP3 PUSH2 0xCC3 JUMP JUMPDEST PUSH1 0x40 DUP3 ADD SWAP1 POP SWAP2 SWAP1 POP JUMP JUMPDEST PUSH1 0x0 PUSH1 0x20 DUP3 ADD SWAP1 POP DUP2 DUP2 SUB PUSH1 0x0 DUP4 ADD MSTORE PUSH2 0xD4E DUP2 PUSH2 0xD12 JUMP JUMPDEST SWAP1 POP SWAP2 SWAP1 POP JUMP JUMPDEST PUSH1 0x0 PUSH1 0x60 DUP3 ADD SWAP1 POP PUSH2 0xD6A PUSH1 0x0 DUP4 ADD DUP7 PUSH2 0xA0C JUMP JUMPDEST PUSH2 0xD77 PUSH1 0x20 DUP4 ADD DUP6 PUSH2 0xA0C JUMP JUMPDEST PUSH2 0xD84 PUSH1 0x40 DUP4 ADD DUP5 PUSH2 0xA1B JUMP JUMPDEST SWAP5 SWAP4 POP POP POP POP JUMP JUMPDEST PUSH1 0x0 DUP2 ISZERO ISZERO SWAP1 POP SWAP2 SWAP1 POP JUMP JUMPDEST PUSH2 0xDA1 DUP2 PUSH2 0xD8C JUMP JUMPDEST DUP2 EQ PUSH2 0xDAC JUMPI PUSH1 0x0 DUP1 REVERT JUMPDEST POP JUMP JUMPDEST PUSH1 0x0 DUP2 MLOAD SWAP1 POP PUSH2 0xDBE DUP2 PUSH2 0xD98 JUMP JUMPDEST SWAP3 SWAP2 POP POP JUMP JUMPDEST PUSH1 0x0 PUSH1 0x20 DUP3 DUP5 SUB SLT ISZERO PUSH2 0xDDA JUMPI PUSH2 0xDD9 PUSH2 0x8B9 JUMP JUMPDEST JUMPDEST PUSH1 0x0 PUSH2 0xDE8 DUP5 DUP3 DUP6 ADD PUSH2 0xDAF JUMP JUMPDEST SWAP2 POP POP SWAP3 SWAP2 POP POP JUMP JUMPDEST PUSH32 0x546F6B656E56657374696E673A206E6F2076657374696E6720666F756E642066 PUSH1 0x0 DUP3 ADD MSTORE PUSH32 0x6F722073656E6465720000000000000000000000000000000000000000000000 PUSH1 0x20 DUP3 ADD MSTORE POP JUMP JUMPDEST PUSH1 0x0 PUSH2 0xE4D PUSH1 0x29 DUP4 PUSH2 0xA99 JUMP JUMPDEST SWAP2 POP PUSH2 0xE58 DUP3 PUSH2 0xDF1 JUMP JUMPDEST PUSH1 0x40 DUP3 ADD SWAP1 POP SWAP2 SWAP1 POP JUMP JUMPDEST PUSH1 0x0 PUSH1 0x20 DUP3 ADD SWAP1 POP DUP2 DUP2 SUB PUSH1 0x0 DUP4 ADD MSTORE PUSH2 0xE7C DUP2 PUSH2 0xE40 JUMP JUMPDEST SWAP1 POP SWAP2 SWAP1 POP JUMP JUMPDEST PUSH32 0x546F6B656E56657374696E673A2076657374696E6720686173206E6F74207374 PUSH1 0x0 DUP3 ADD MSTORE PUSH32 0x6172746564207965740000000000000000000000000000000000000000000000 PUSH1 0x20 DUP3 ADD MSTORE POP JUMP JUMPDEST PUSH1 0x0 PUSH2 0xEDF PUSH1 0x29 DUP4 PUSH2 0xA99 JUMP JUMPDEST SWAP2 POP PUSH2 0xEEA DUP3 PUSH2 0xE83 JUMP JUMPDEST PUSH1 0x40 DUP3 ADD SWAP1 POP SWAP2 SWAP1 POP JUMP JUMPDEST PUSH1 0x0 PUSH1 0x20 DUP3 ADD SWAP1 POP DUP2 DUP2 SUB PUSH1 0x0 DUP4 ADD MSTORE PUSH2 0xF0E DUP2 PUSH2 0xED2 JUMP JUMPDEST SWAP1 POP SWAP2 SWAP1 POP JUMP JUMPDEST PUSH1 0x0 PUSH2 0xF20 DUP3 PUSH2 0x91C JUMP JUMPDEST SWAP2 POP PUSH2 0xF2B DUP4 PUSH2 0x91C JUMP JUMPDEST SWAP3 POP DUP3 DUP3 SUB SWAP1 POP DUP2 DUP2 GT ISZERO PUSH2 0xF43 JUMPI PUSH2 0xF42 PUSH2 0xBCE JUMP JUMPDEST JUMPDEST SWAP3 SWAP2 POP POP JUMP JUMPDEST PUSH32 0x546F6B656E56657374696E673A206E6F20746F6B656E7320746F2072656C6561 PUSH1 0x0 DUP3 ADD MSTORE PUSH32 0x7365000000000000000000000000000000000000000000000000000000000000 PUSH1 0x20 DUP3 ADD MSTORE POP JUMP JUMPDEST PUSH1 0x0 PUSH2 0xFA5 PUSH1 0x22 DUP4 PUSH2 0xA99 JUMP JUMPDEST SWAP2 POP PUSH2 0xFB0 DUP3 PUSH2 0xF49 JUMP JUMPDEST PUSH1 0x40 DUP3 ADD SWAP1 POP SWAP2 SWAP1 POP JUMP JUMPDEST PUSH1 0x0 PUSH1 0x20 DUP3 ADD SWAP1 POP DUP2 DUP2 SUB PUSH1 0x0 DUP4 ADD MSTORE PUSH2 0xFD4 DUP2 PUSH2 0xF98 JUMP JUMPDEST SWAP1 POP SWAP2 SWAP1 POP JUMP JUMPDEST PUSH1 0x0 PUSH1 0x40 DUP3 ADD SWAP1 POP PUSH2 0xFF0 PUSH1 0x0 DUP4 ADD DUP6 PUSH2 0xA0C JUMP JUMPDEST PUSH2 0xFFD PUSH1 0x20 DUP4 ADD DUP5 PUSH2 0xA1B JUMP JUMPDEST SWAP4 SWAP3 POP POP POP JUMP JUMPDEST PUSH1 0x0 PUSH1 0x20 DUP3 ADD SWAP1 POP PUSH2 0x1019 PUSH1 0x0 DUP4 ADD DUP5 PUSH2 0xA0C JUMP JUMPDEST SWAP3 SWAP2 POP POP JUMP JUMPDEST PUSH1 0x0 DUP2 MLOAD SWAP1 POP PUSH2 0x102E DUP2 PUSH2 0x926 JUMP JUMPDEST SWAP3 SWAP2 POP POP JUMP JUMPDEST PUSH1 0x0 PUSH1 0x20 DUP3 DUP5 SUB SLT ISZERO PUSH2 0x104A JUMPI PUSH2 0x1049 PUSH2 0x8B9 JUMP JUMPDEST JUMPDEST PUSH1 0x0 PUSH2 0x1058 DUP5 DUP3 DUP6 ADD PUSH2 0x101F JUMP JUMPDEST SWAP2 POP POP SWAP3 SWAP2 POP POP JUMP JUMPDEST PUSH1 0x0 PUSH2 0x106C DUP3 PUSH2 0x91C JUMP JUMPDEST SWAP2 POP PUSH2 0x1077 DUP4 PUSH2 0x91C JUMP JUMPDEST SWAP3 POP DUP3 DUP3 MUL PUSH2 0x1085 DUP2 PUSH2 0x91C JUMP JUMPDEST SWAP2 POP DUP3 DUP3 DIV DUP5 EQ DUP4 ISZERO OR PUSH2 0x109C JUMPI PUSH2 0x109B PUSH2 0xBCE JUMP JUMPDEST JUMPDEST POP SWAP3 SWAP2 POP POP JUMP JUMPDEST PUSH32 0x4E487B7100000000000000000000000000000000000000000000000000000000 PUSH1 0x0 MSTORE PUSH1 0x12 PUSH1 0x4 MSTORE PUSH1 0x24 PUSH1 0x0 REVERT JUMPDEST PUSH1 0x0 PUSH2 0x10DD DUP3 PUSH2 0x91C JUMP JUMPDEST SWAP2 POP PUSH2 0x10E8 DUP4 PUSH2 0x91C JUMP JUMPDEST SWAP3 POP DUP3 PUSH2 0x10F8 JUMPI PUSH2 0x10F7 PUSH2 0x10A3 JUMP JUMPDEST JUMPDEST DUP3 DUP3 DIV SWAP1 POP SWAP3 SWAP2 POP POP JUMP INVALID LOG2 PUSH5 0x6970667358 0x22 SLT KECCAK256 0xC2 SLT 0x2A 0xE4 LOG0 JUMPDEST 0x5C RETURN PUSH22 0xCBD1259FEEA751A9CF54AE6C0C8D0AC4938C9FEF8112 OR PUSH5 0x736F6C6343 STOP ADDMOD SLT STOP CALLER "
		},
		"gasEstimates": {
			"creation": {
				"codeDepositCost": "881800",
				"executionCost": "916",
				"totalCost": "882716"
			},
			"external": {
				"release()": "infinite",
				"setVesting(address,uint256,uint256,uint256,uint256,address)": "infinite",
				"vestings(address)": "infinite"
			},
			"internal": {
				"vestedAmount(struct TokenVesting.Vesting memory)": "infinite"
			}
		},
		"methodIdentifiers": {
			"release()": "86d1a69f",
			"setVesting(address,uint256,uint256,uint256,uint256,address)": "3011dffc",
			"vestings(address)": "daf49863"
		}
	},
	"abi": [
		{
			"inputs": [],
			"stateMutability": "nonpayable",
			"type": "constructor"
		},
		{
			"inputs": [],
			"name": "release",
			"outputs": [],
			"stateMutability": "nonpayable",
			"type": "function"
		},
		{
			"inputs": [
				{
					"internalType": "address",
					"name": "_beneficiary",
					"type": "address"
				},
				{
					"internalType": "uint256",
					"name": "_cliffDuration",
					"type": "uint256"
				},
				{
					"internalType": "uint256",
					"name": "_vestingDuration",
					"type": "uint256"
				},
				{
					"internalType": "uint256",
					"name": "_start",
					"type": "uint256"
				},
				{
					"internalType": "uint256",
					"name": "_totalTokens",
					"type": "uint256"
				},
				{
					"internalType": "address",
					"name": "_tokenAddress",
					"type": "address"
				}
			],
			"name": "setVesting",
			"outputs": [],
			"stateMutability": "nonpayable",
			"type": "function"
		},
		{
			"inputs": [
				{
					"internalType": "address",
					"name": "",
					"type": "address"
				}
			],
			"name": "vestings",
			"outputs": [
				{
					"internalType": "address",
					"name": "beneficiary",
					"type": "address"
				},
				{
					"internalType": "uint256",
					"name": "cliffDuration",
					"type": "uint256"
				},
				{
					"internalType": "uint256",
					"name": "vestingDuration",
					"type": "uint256"
				},
				{
					"internalType": "uint256",
					"name": "start",
					"type": "uint256"
				},
				{
					"internalType": "uint256",
					"name": "totalTokens",
					"type": "uint256"
				},
				{
					"internalType": "uint256",
					"name": "releasedTokens",
					"type": "uint256"
				},
				{
					"internalType": "address",
					"name": "tokenAddress",
					"type": "address"
				}
			],
			"stateMutability": "view",
			"type": "function"
		}
	]
}