{
	"data": {
		"bytecode": {
			"linkReferences": {},
			"object": "608060405234801561001057600080fd5b50611224806100206000396000f3fe608060405234801561001057600080fd5b50600436106100415760003560e01c8063725567831461004657806386d1a69f14610062578063daf498631461006c575b600080fd5b610060600480360381019061005b9190610996565b6100a2565b005b61006a6103f4565b005b61008660048036038101906100819190610a38565b610738565b6040516100999796959493929190610a83565b60405180910390f35b600073ffffffffffffffffffffffffffffffffffffffff168773ffffffffffffffffffffffffffffffffffffffff1603610111576040517f08c379a000000000000000000000000000000000000000000000000000000000815260040161010890610b75565b60405180910390fd5b84861115610154576040517f08c379a000000000000000000000000000000000000000000000000000000000815260040161014b90610c07565b60405180910390fd5b4285856101619190610c56565b116101a1576040517f08c379a000000000000000000000000000000000000000000000000000000000815260040161019890610cfc565b60405180910390fd5b828211156101e4576040517f08c379a00000000000000000000000000000000000000000000000000000000081526004016101db90610d8e565b60405180910390fd5b60008060008973ffffffffffffffffffffffffffffffffffffffff1673ffffffffffffffffffffffffffffffffffffffff1681526020019081526020016000209050600073ffffffffffffffffffffffffffffffffffffffff168160000160009054906101000a900473ffffffffffffffffffffffffffffffffffffffff1673ffffffffffffffffffffffffffffffffffffffff16146102b9576040517f08c379a00000000000000000000000000000000000000000000000000000000081526004016102b090610e20565b60405180910390fd5b878160000160006101000a81548173ffffffffffffffffffffffffffffffffffffffff021916908373ffffffffffffffffffffffffffffffffffffffff160217905550868160010181905550858160020181905550848160030181905550838160040181905550818160060160006101000a81548173ffffffffffffffffffffffffffffffffffffffff021916908373ffffffffffffffffffffffffffffffffffffffff16021790555060008290508073ffffffffffffffffffffffffffffffffffffffff166323b872dd3330876040518463ffffffff1660e01b81526004016103a593929190610e40565b6020604051808303816000875af11580156103c4573d6000803e3d6000fd5b505050506040513d601f19601f820116820180604052508101906103e89190610eaf565b50505050505050505050565b60008060003373ffffffffffffffffffffffffffffffffffffffff1673ffffffffffffffffffffffffffffffffffffffff1681526020019081526020016000209050600073ffffffffffffffffffffffffffffffffffffffff168160000160009054906101000a900473ffffffffffffffffffffffffffffffffffffffff1673ffffffffffffffffffffffffffffffffffffffff16036104c9576040517f08c379a00000000000000000000000000000000000000000000000000000000081526004016104c090610f4e565b60405180910390fd5b8060030154421015610510576040517f08c379a000000000000000000000000000000000000000000000000000000000815260040161050790610fe0565b60405180910390fd5b60008160060160009054906101000a900473ffffffffffffffffffffffffffffffffffffffff169050600061062d836040518060e00160405290816000820160009054906101000a900473ffffffffffffffffffffffffffffffffffffffff1673ffffffffffffffffffffffffffffffffffffffff1673ffffffffffffffffffffffffffffffffffffffff16815260200160018201548152602001600282015481526020016003820154815260200160048201548152602001600582015481526020016006820160009054906101000a900473ffffffffffffffffffffffffffffffffffffffff1673ffffffffffffffffffffffffffffffffffffffff1673ffffffffffffffffffffffffffffffffffffffff16815250506107ba565b905060008360050154826106419190611000565b905060008111610686576040517f08c379a000000000000000000000000000000000000000000000000000000000815260040161067d906110a6565b60405180910390fd5b8184600501819055508273ffffffffffffffffffffffffffffffffffffffff1663a9059cbb8560000160009054906101000a900473ffffffffffffffffffffffffffffffffffffffff16836040518363ffffffff1660e01b81526004016106ee9291906110c6565b6020604051808303816000875af115801561070d573d6000803e3d6000fd5b505050506040513d601f19601f820116820180604052508101906107319190610eaf565b5050505050565b60006020528060005260406000206000915090508060000160009054906101000a900473ffffffffffffffffffffffffffffffffffffffff16908060010154908060020154908060030154908060040154908060050154908060060160009054906101000a900473ffffffffffffffffffffffffffffffffffffffff16905087565b6000808260c00151905060008173ffffffffffffffffffffffffffffffffffffffff166370a08231306040518263ffffffff1660e01b81526004016107ff91906110ef565b602060405180830381865afa15801561081c573d6000803e3d6000fd5b505050506040513d601f19601f82011682018060405250810190610840919061111f565b90506000846040015185606001516108589190610c56565b90508460200151856060015161086e9190610c56565b42101561088157600093505050506108f8565b80421061089757846080015193505050506108f8565b60008560400151606487602001518860600151426108b59190611000565b6108bf9190611000565b6108c9919061114c565b6108d391906111bd565b905060648187608001516108e7919061114c565b6108f191906111bd565b9450505050505b919050565b600080fd5b600073ffffffffffffffffffffffffffffffffffffffff82169050919050565b600061092d82610902565b9050919050565b61093d81610922565b811461094857600080fd5b50565b60008135905061095a81610934565b92915050565b6000819050919050565b61097381610960565b811461097e57600080fd5b50565b6000813590506109908161096a565b92915050565b600080600080600080600060e0888a0312156109b5576109b46108fd565b5b60006109c38a828b0161094b565b97505060206109d48a828b01610981565b96505060406109e58a828b01610981565b95505060606109f68a828b01610981565b9450506080610a078a828b01610981565b93505060a0610a188a828b01610981565b92505060c0610a298a828b0161094b565b91505092959891949750929550565b600060208284031215610a4e57610a4d6108fd565b5b6000610a5c8482850161094b565b91505092915050565b610a6e81610922565b82525050565b610a7d81610960565b82525050565b600060e082019050610a98600083018a610a65565b610aa56020830189610a74565b610ab26040830188610a74565b610abf6060830187610a74565b610acc6080830186610a74565b610ad960a0830185610a74565b610ae660c0830184610a65565b98975050505050505050565b600082825260208201905092915050565b7f546f6b656e56657374696e673a2062656e65666963696172792069732074686560008201527f207a65726f206164647265737300000000000000000000000000000000000000602082015250565b6000610b5f602d83610af2565b9150610b6a82610b03565b604082019050919050565b60006020820190508181036000830152610b8e81610b52565b9050919050565b7f546f6b656e56657374696e673a20636c696666206475726174696f6e2065786360008201527f656564732076657374696e67206475726174696f6e0000000000000000000000602082015250565b6000610bf1603583610af2565b9150610bfc82610b95565b604082019050919050565b60006020820190508181036000830152610c2081610be4565b9050919050565b7f4e487b7100000000000000000000000000000000000000000000000000000000600052601160045260246000fd5b6000610c6182610960565b9150610c6c83610960565b9250828201905080821115610c8457610c83610c27565b5b92915050565b7f546f6b656e56657374696e673a2076657374696e6720656e642074696d65737460008201527f616d702070726563656465732063757272656e742074696d657374616d700000602082015250565b6000610ce6603e83610af2565b9150610cf182610c8a565b604082019050919050565b60006020820190508181036000830152610d1581610cd9565b9050919050565b7f546f6b656e56657374696e673a2072657175657374656420746f6b656e73206560008201527f786365656420746f74616c20746f6b656e730000000000000000000000000000602082015250565b6000610d78603283610af2565b9150610d8382610d1c565b604082019050919050565b60006020820190508181036000830152610da781610d6b565b9050919050565b7f546f6b656e56657374696e673a2076657374696e6720616c726561647920657860008201527f6973747320666f72207468652062656e65666963696172790000000000000000602082015250565b6000610e0a603883610af2565b9150610e1582610dae565b604082019050919050565b60006020820190508181036000830152610e3981610dfd565b9050919050565b6000606082019050610e556000830186610a65565b610e626020830185610a65565b610e6f6040830184610a74565b949350505050565b60008115159050919050565b610e8c81610e77565b8114610e9757600080fd5b50565b600081519050610ea981610e83565b92915050565b600060208284031215610ec557610ec46108fd565b5b6000610ed384828501610e9a565b91505092915050565b7f546f6b656e56657374696e673a206e6f2076657374696e6720666f756e64206660008201527f6f722073656e6465720000000000000000000000000000000000000000000000602082015250565b6000610f38602983610af2565b9150610f4382610edc565b604082019050919050565b60006020820190508181036000830152610f6781610f2b565b9050919050565b7f546f6b656e56657374696e673a2076657374696e6720686173206e6f7420737460008201527f6172746564207965740000000000000000000000000000000000000000000000602082015250565b6000610fca602983610af2565b9150610fd582610f6e565b604082019050919050565b60006020820190508181036000830152610ff981610fbd565b9050919050565b600061100b82610960565b915061101683610960565b925082820390508181111561102e5761102d610c27565b5b92915050565b7f546f6b656e56657374696e673a206e6f20746f6b656e7320746f2072656c656160008201527f7365000000000000000000000000000000000000000000000000000000000000602082015250565b6000611090602283610af2565b915061109b82611034565b604082019050919050565b600060208201905081810360008301526110bf81611083565b9050919050565b60006040820190506110db6000830185610a65565b6110e86020830184610a74565b9392505050565b60006020820190506111046000830184610a65565b92915050565b6000815190506111198161096a565b92915050565b600060208284031215611135576111346108fd565b5b60006111438482850161110a565b91505092915050565b600061115782610960565b915061116283610960565b925082820261117081610960565b9150828204841483151761118757611186610c27565b5b5092915050565b7f4e487b7100000000000000000000000000000000000000000000000000000000600052601260045260246000fd5b60006111c882610960565b91506111d383610960565b9250826111e3576111e261118e565b5b82820490509291505056fea26469706673582212200999a793ee1bbaf4d74ef62375a9383ebafd349d593f8a0d8a886793edf6ab6b64736f6c63430008120033",
			"opcodes": "PUSH1 0x80 PUSH1 0x40 MSTORE CALLVALUE DUP1 ISZERO PUSH2 0x10 JUMPI PUSH1 0x0 DUP1 REVERT JUMPDEST POP PUSH2 0x1224 DUP1 PUSH2 0x20 PUSH1 0x0 CODECOPY PUSH1 0x0 RETURN INVALID PUSH1 0x80 PUSH1 0x40 MSTORE CALLVALUE DUP1 ISZERO PUSH2 0x10 JUMPI PUSH1 0x0 DUP1 REVERT JUMPDEST POP PUSH1 0x4 CALLDATASIZE LT PUSH2 0x41 JUMPI PUSH1 0x0 CALLDATALOAD PUSH1 0xE0 SHR DUP1 PUSH4 0x72556783 EQ PUSH2 0x46 JUMPI DUP1 PUSH4 0x86D1A69F EQ PUSH2 0x62 JUMPI DUP1 PUSH4 0xDAF49863 EQ PUSH2 0x6C JUMPI JUMPDEST PUSH1 0x0 DUP1 REVERT JUMPDEST PUSH2 0x60 PUSH1 0x4 DUP1 CALLDATASIZE SUB DUP2 ADD SWAP1 PUSH2 0x5B SWAP2 SWAP1 PUSH2 0x996 JUMP JUMPDEST PUSH2 0xA2 JUMP JUMPDEST STOP JUMPDEST PUSH2 0x6A PUSH2 0x3F4 JUMP JUMPDEST STOP JUMPDEST PUSH2 0x86 PUSH1 0x4 DUP1 CALLDATASIZE SUB DUP2 ADD SWAP1 PUSH2 0x81 SWAP2 SWAP1 PUSH2 0xA38 JUMP JUMPDEST PUSH2 0x738 JUMP JUMPDEST PUSH1 0x40 MLOAD PUSH2 0x99 SWAP8 SWAP7 SWAP6 SWAP5 SWAP4 SWAP3 SWAP2 SWAP1 PUSH2 0xA83 JUMP JUMPDEST PUSH1 0x40 MLOAD DUP1 SWAP2 SUB SWAP1 RETURN JUMPDEST PUSH1 0x0 PUSH20 0xFFFFFFFFFFFFFFFFFFFFFFFFFFFFFFFFFFFFFFFF AND DUP8 PUSH20 0xFFFFFFFFFFFFFFFFFFFFFFFFFFFFFFFFFFFFFFFF AND SUB PUSH2 0x111 JUMPI PUSH1 0x40 MLOAD PUSH32 0x8C379A000000000000000000000000000000000000000000000000000000000 DUP2 MSTORE PUSH1 0x4 ADD PUSH2 0x108 SWAP1 PUSH2 0xB75 JUMP JUMPDEST PUSH1 0x40 MLOAD DUP1 SWAP2 SUB SWAP1 REVERT JUMPDEST DUP5 DUP7 GT ISZERO PUSH2 0x154 JUMPI PUSH1 0x40 MLOAD PUSH32 0x8C379A000000000000000000000000000000000000000000000000000000000 DUP2 MSTORE PUSH1 0x4 ADD PUSH2 0x14B SWAP1 PUSH2 0xC07 JUMP JUMPDEST PUSH1 0x40 MLOAD DUP1 SWAP2 SUB SWAP1 REVERT JUMPDEST TIMESTAMP DUP6 DUP6 PUSH2 0x161 SWAP2 SWAP1 PUSH2 0xC56 JUMP JUMPDEST GT PUSH2 0x1A1 JUMPI PUSH1 0x40 MLOAD PUSH32 0x8C379A000000000000000000000000000000000000000000000000000000000 DUP2 MSTORE PUSH1 0x4 ADD PUSH2 0x198 SWAP1 PUSH2 0xCFC JUMP JUMPDEST PUSH1 0x40 MLOAD DUP1 SWAP2 SUB SWAP1 REVERT JUMPDEST DUP3 DUP3 GT ISZERO PUSH2 0x1E4 JUMPI PUSH1 0x40 MLOAD PUSH32 0x8C379A000000000000000000000000000000000000000000000000000000000 DUP2 MSTORE PUSH1 0x4 ADD PUSH2 0x1DB SWAP1 PUSH2 0xD8E JUMP JUMPDEST PUSH1 0x40 MLOAD DUP1 SWAP2 SUB SWAP1 REVERT JUMPDEST PUSH1 0x0 DUP1 PUSH1 0x0 DUP10 PUSH20 0xFFFFFFFFFFFFFFFFFFFFFFFFFFFFFFFFFFFFFFFF AND PUSH20 0xFFFFFFFFFFFFFFFFFFFFFFFFFFFFFFFFFFFFFFFF AND DUP2 MSTORE PUSH1 0x20 ADD SWAP1 DUP2 MSTORE PUSH1 0x20 ADD PUSH1 0x0 KECCAK256 SWAP1 POP PUSH1 0x0 PUSH20 0xFFFFFFFFFFFFFFFFFFFFFFFFFFFFFFFFFFFFFFFF AND DUP2 PUSH1 0x0 ADD PUSH1 0x0 SWAP1 SLOAD SWAP1 PUSH2 0x100 EXP SWAP1 DIV PUSH20 0xFFFFFFFFFFFFFFFFFFFFFFFFFFFFFFFFFFFFFFFF AND PUSH20 0xFFFFFFFFFFFFFFFFFFFFFFFFFFFFFFFFFFFFFFFF AND EQ PUSH2 0x2B9 JUMPI PUSH1 0x40 MLOAD PUSH32 0x8C379A000000000000000000000000000000000000000000000000000000000 DUP2 MSTORE PUSH1 0x4 ADD PUSH2 0x2B0 SWAP1 PUSH2 0xE20 JUMP JUMPDEST PUSH1 0x40 MLOAD DUP1 SWAP2 SUB SWAP1 REVERT JUMPDEST DUP8 DUP2 PUSH1 0x0 ADD PUSH1 0x0 PUSH2 0x100 EXP DUP2 SLOAD DUP2 PUSH20 0xFFFFFFFFFFFFFFFFFFFFFFFFFFFFFFFFFFFFFFFF MUL NOT AND SWAP1 DUP4 PUSH20 0xFFFFFFFFFFFFFFFFFFFFFFFFFFFFFFFFFFFFFFFF AND MUL OR SWAP1 SSTORE POP DUP7 DUP2 PUSH1 0x1 ADD DUP2 SWAP1 SSTORE POP DUP6 DUP2 PUSH1 0x2 ADD DUP2 SWAP1 SSTORE POP DUP5 DUP2 PUSH1 0x3 ADD DUP2 SWAP1 SSTORE POP DUP4 DUP2 PUSH1 0x4 ADD DUP2 SWAP1 SSTORE POP DUP2 DUP2 PUSH1 0x6 ADD PUSH1 0x0 PUSH2 0x100 EXP DUP2 SLOAD DUP2 PUSH20 0xFFFFFFFFFFFFFFFFFFFFFFFFFFFFFFFFFFFFFFFF MUL NOT AND SWAP1 DUP4 PUSH20 0xFFFFFFFFFFFFFFFFFFFFFFFFFFFFFFFFFFFFFFFF AND MUL OR SWAP1 SSTORE POP PUSH1 0x0 DUP3 SWAP1 POP DUP1 PUSH20 0xFFFFFFFFFFFFFFFFFFFFFFFFFFFFFFFFFFFFFFFF AND PUSH4 0x23B872DD CALLER ADDRESS DUP8 PUSH1 0x40 MLOAD DUP5 PUSH4 0xFFFFFFFF AND PUSH1 0xE0 SHL DUP2 MSTORE PUSH1 0x4 ADD PUSH2 0x3A5 SWAP4 SWAP3 SWAP2 SWAP1 PUSH2 0xE40 JUMP JUMPDEST PUSH1 0x20 PUSH1 0x40 MLOAD DUP1 DUP4 SUB DUP2 PUSH1 0x0 DUP8 GAS CALL ISZERO DUP1 ISZERO PUSH2 0x3C4 JUMPI RETURNDATASIZE PUSH1 0x0 DUP1 RETURNDATACOPY RETURNDATASIZE PUSH1 0x0 REVERT JUMPDEST POP POP POP POP PUSH1 0x40 MLOAD RETURNDATASIZE PUSH1 0x1F NOT PUSH1 0x1F DUP3 ADD AND DUP3 ADD DUP1 PUSH1 0x40 MSTORE POP DUP2 ADD SWAP1 PUSH2 0x3E8 SWAP2 SWAP1 PUSH2 0xEAF JUMP JUMPDEST POP POP POP POP POP POP POP POP POP POP JUMP JUMPDEST PUSH1 0x0 DUP1 PUSH1 0x0 CALLER PUSH20 0xFFFFFFFFFFFFFFFFFFFFFFFFFFFFFFFFFFFFFFFF AND PUSH20 0xFFFFFFFFFFFFFFFFFFFFFFFFFFFFFFFFFFFFFFFF AND DUP2 MSTORE PUSH1 0x20 ADD SWAP1 DUP2 MSTORE PUSH1 0x20 ADD PUSH1 0x0 KECCAK256 SWAP1 POP PUSH1 0x0 PUSH20 0xFFFFFFFFFFFFFFFFFFFFFFFFFFFFFFFFFFFFFFFF AND DUP2 PUSH1 0x0 ADD PUSH1 0x0 SWAP1 SLOAD SWAP1 PUSH2 0x100 EXP SWAP1 DIV PUSH20 0xFFFFFFFFFFFFFFFFFFFFFFFFFFFFFFFFFFFFFFFF AND PUSH20 0xFFFFFFFFFFFFFFFFFFFFFFFFFFFFFFFFFFFFFFFF AND SUB PUSH2 0x4C9 JUMPI PUSH1 0x40 MLOAD PUSH32 0x8C379A000000000000000000000000000000000000000000000000000000000 DUP2 MSTORE PUSH1 0x4 ADD PUSH2 0x4C0 SWAP1 PUSH2 0xF4E JUMP JUMPDEST PUSH1 0x40 MLOAD DUP1 SWAP2 SUB SWAP1 REVERT JUMPDEST DUP1 PUSH1 0x3 ADD SLOAD TIMESTAMP LT ISZERO PUSH2 0x510 JUMPI PUSH1 0x40 MLOAD PUSH32 0x8C379A000000000000000000000000000000000000000000000000000000000 DUP2 MSTORE PUSH1 0x4 ADD PUSH2 0x507 SWAP1 PUSH2 0xFE0 JUMP JUMPDEST PUSH1 0x40 MLOAD DUP1 SWAP2 SUB SWAP1 REVERT JUMPDEST PUSH1 0x0 DUP2 PUSH1 0x6 ADD PUSH1 0x0 SWAP1 SLOAD SWAP1 PUSH2 0x100 EXP SWAP1 DIV PUSH20 0xFFFFFFFFFFFFFFFFFFFFFFFFFFFFFFFFFFFFFFFF AND SWAP1 POP PUSH1 0x0 PUSH2 0x62D DUP4 PUSH1 0x40 MLOAD DUP1 PUSH1 0xE0 ADD PUSH1 0x40 MSTORE SWAP1 DUP2 PUSH1 0x0 DUP3 ADD PUSH1 0x0 SWAP1 SLOAD SWAP1 PUSH2 0x100 EXP SWAP1 DIV PUSH20 0xFFFFFFFFFFFFFFFFFFFFFFFFFFFFFFFFFFFFFFFF AND PUSH20 0xFFFFFFFFFFFFFFFFFFFFFFFFFFFFFFFFFFFFFFFF AND PUSH20 0xFFFFFFFFFFFFFFFFFFFFFFFFFFFFFFFFFFFFFFFF AND DUP2 MSTORE PUSH1 0x20 ADD PUSH1 0x1 DUP3 ADD SLOAD DUP2 MSTORE PUSH1 0x20 ADD PUSH1 0x2 DUP3 ADD SLOAD DUP2 MSTORE PUSH1 0x20 ADD PUSH1 0x3 DUP3 ADD SLOAD DUP2 MSTORE PUSH1 0x20 ADD PUSH1 0x4 DUP3 ADD SLOAD DUP2 MSTORE PUSH1 0x20 ADD PUSH1 0x5 DUP3 ADD SLOAD DUP2 MSTORE PUSH1 0x20 ADD PUSH1 0x6 DUP3 ADD PUSH1 0x0 SWAP1 SLOAD SWAP1 PUSH2 0x100 EXP SWAP1 DIV PUSH20 0xFFFFFFFFFFFFFFFFFFFFFFFFFFFFFFFFFFFFFFFF AND PUSH20 0xFFFFFFFFFFFFFFFFFFFFFFFFFFFFFFFFFFFFFFFF AND PUSH20 0xFFFFFFFFFFFFFFFFFFFFFFFFFFFFFFFFFFFFFFFF AND DUP2 MSTORE POP POP PUSH2 0x7BA JUMP JUMPDEST SWAP1 POP PUSH1 0x0 DUP4 PUSH1 0x5 ADD SLOAD DUP3 PUSH2 0x641 SWAP2 SWAP1 PUSH2 0x1000 JUMP JUMPDEST SWAP1 POP PUSH1 0x0 DUP2 GT PUSH2 0x686 JUMPI PUSH1 0x40 MLOAD PUSH32 0x8C379A000000000000000000000000000000000000000000000000000000000 DUP2 MSTORE PUSH1 0x4 ADD PUSH2 0x67D SWAP1 PUSH2 0x10A6 JUMP JUMPDEST PUSH1 0x40 MLOAD DUP1 SWAP2 SUB SWAP1 REVERT JUMPDEST DUP2 DUP5 PUSH1 0x5 ADD DUP2 SWAP1 SSTORE POP DUP3 PUSH20 0xFFFFFFFFFFFFFFFFFFFFFFFFFFFFFFFFFFFFFFFF AND PUSH4 0xA9059CBB DUP6 PUSH1 0x0 ADD PUSH1 0x0 SWAP1 SLOAD SWAP1 PUSH2 0x100 EXP SWAP1 DIV PUSH20 0xFFFFFFFFFFFFFFFFFFFFFFFFFFFFFFFFFFFFFFFF AND DUP4 PUSH1 0x40 MLOAD DUP4 PUSH4 0xFFFFFFFF AND PUSH1 0xE0 SHL DUP2 MSTORE PUSH1 0x4 ADD PUSH2 0x6EE SWAP3 SWAP2 SWAP1 PUSH2 0x10C6 JUMP JUMPDEST PUSH1 0x20 PUSH1 0x40 MLOAD DUP1 DUP4 SUB DUP2 PUSH1 0x0 DUP8 GAS CALL ISZERO DUP1 ISZERO PUSH2 0x70D JUMPI RETURNDATASIZE PUSH1 0x0 DUP1 RETURNDATACOPY RETURNDATASIZE PUSH1 0x0 REVERT JUMPDEST POP POP POP POP PUSH1 0x40 MLOAD RETURNDATASIZE PUSH1 0x1F NOT PUSH1 0x1F DUP3 ADD AND DUP3 ADD DUP1 PUSH1 0x40 MSTORE POP DUP2 ADD SWAP1 PUSH2 0x731 SWAP2 SWAP1 PUSH2 0xEAF JUMP JUMPDEST POP POP POP POP POP JUMP JUMPDEST PUSH1 0x0 PUSH1 0x20 MSTORE DUP1 PUSH1 0x0 MSTORE PUSH1 0x40 PUSH1 0x0 KECCAK256 PUSH1 0x0 SWAP2 POP SWAP1 POP DUP1 PUSH1 0x0 ADD PUSH1 0x0 SWAP1 SLOAD SWAP1 PUSH2 0x100 EXP SWAP1 DIV PUSH20 0xFFFFFFFFFFFFFFFFFFFFFFFFFFFFFFFFFFFFFFFF AND SWAP1 DUP1 PUSH1 0x1 ADD SLOAD SWAP1 DUP1 PUSH1 0x2 ADD SLOAD SWAP1 DUP1 PUSH1 0x3 ADD SLOAD SWAP1 DUP1 PUSH1 0x4 ADD SLOAD SWAP1 DUP1 PUSH1 0x5 ADD SLOAD SWAP1 DUP1 PUSH1 0x6 ADD PUSH1 0x0 SWAP1 SLOAD SWAP1 PUSH2 0x100 EXP SWAP1 DIV PUSH20 0xFFFFFFFFFFFFFFFFFFFFFFFFFFFFFFFFFFFFFFFF AND SWAP1 POP DUP8 JUMP JUMPDEST PUSH1 0x0 DUP1 DUP3 PUSH1 0xC0 ADD MLOAD SWAP1 POP PUSH1 0x0 DUP2 PUSH20 0xFFFFFFFFFFFFFFFFFFFFFFFFFFFFFFFFFFFFFFFF AND PUSH4 0x70A08231 ADDRESS PUSH1 0x40 MLOAD DUP3 PUSH4 0xFFFFFFFF AND PUSH1 0xE0 SHL DUP2 MSTORE PUSH1 0x4 ADD PUSH2 0x7FF SWAP2 SWAP1 PUSH2 0x10EF JUMP JUMPDEST PUSH1 0x20 PUSH1 0x40 MLOAD DUP1 DUP4 SUB DUP2 DUP7 GAS STATICCALL ISZERO DUP1 ISZERO PUSH2 0x81C JUMPI RETURNDATASIZE PUSH1 0x0 DUP1 RETURNDATACOPY RETURNDATASIZE PUSH1 0x0 REVERT JUMPDEST POP POP POP POP PUSH1 0x40 MLOAD RETURNDATASIZE PUSH1 0x1F NOT PUSH1 0x1F DUP3 ADD AND DUP3 ADD DUP1 PUSH1 0x40 MSTORE POP DUP2 ADD SWAP1 PUSH2 0x840 SWAP2 SWAP1 PUSH2 0x111F JUMP JUMPDEST SWAP1 POP PUSH1 0x0 DUP5 PUSH1 0x40 ADD MLOAD DUP6 PUSH1 0x60 ADD MLOAD PUSH2 0x858 SWAP2 SWAP1 PUSH2 0xC56 JUMP JUMPDEST SWAP1 POP DUP5 PUSH1 0x20 ADD MLOAD DUP6 PUSH1 0x60 ADD MLOAD PUSH2 0x86E SWAP2 SWAP1 PUSH2 0xC56 JUMP JUMPDEST TIMESTAMP LT ISZERO PUSH2 0x881 JUMPI PUSH1 0x0 SWAP4 POP POP POP POP PUSH2 0x8F8 JUMP JUMPDEST DUP1 TIMESTAMP LT PUSH2 0x897 JUMPI DUP5 PUSH1 0x80 ADD MLOAD SWAP4 POP POP POP POP PUSH2 0x8F8 JUMP JUMPDEST PUSH1 0x0 DUP6 PUSH1 0x40 ADD MLOAD PUSH1 0x64 DUP8 PUSH1 0x20 ADD MLOAD DUP9 PUSH1 0x60 ADD MLOAD TIMESTAMP PUSH2 0x8B5 SWAP2 SWAP1 PUSH2 0x1000 JUMP JUMPDEST PUSH2 0x8BF SWAP2 SWAP1 PUSH2 0x1000 JUMP JUMPDEST PUSH2 0x8C9 SWAP2 SWAP1 PUSH2 0x114C JUMP JUMPDEST PUSH2 0x8D3 SWAP2 SWAP1 PUSH2 0x11BD JUMP JUMPDEST SWAP1 POP PUSH1 0x64 DUP2 DUP8 PUSH1 0x80 ADD MLOAD PUSH2 0x8E7 SWAP2 SWAP1 PUSH2 0x114C JUMP JUMPDEST PUSH2 0x8F1 SWAP2 SWAP1 PUSH2 0x11BD JUMP JUMPDEST SWAP5 POP POP POP POP POP JUMPDEST SWAP2 SWAP1 POP JUMP JUMPDEST PUSH1 0x0 DUP1 REVERT JUMPDEST PUSH1 0x0 PUSH20 0xFFFFFFFFFFFFFFFFFFFFFFFFFFFFFFFFFFFFFFFF DUP3 AND SWAP1 POP SWAP2 SWAP1 POP JUMP JUMPDEST PUSH1 0x0 PUSH2 0x92D DUP3 PUSH2 0x902 JUMP JUMPDEST SWAP1 POP SWAP2 SWAP1 POP JUMP JUMPDEST PUSH2 0x93D DUP2 PUSH2 0x922 JUMP JUMPDEST DUP2 EQ PUSH2 0x948 JUMPI PUSH1 0x0 DUP1 REVERT JUMPDEST POP JUMP JUMPDEST PUSH1 0x0 DUP2 CALLDATALOAD SWAP1 POP PUSH2 0x95A DUP2 PUSH2 0x934 JUMP JUMPDEST SWAP3 SWAP2 POP POP JUMP JUMPDEST PUSH1 0x0 DUP2 SWAP1 POP SWAP2 SWAP1 POP JUMP JUMPDEST PUSH2 0x973 DUP2 PUSH2 0x960 JUMP JUMPDEST DUP2 EQ PUSH2 0x97E JUMPI PUSH1 0x0 DUP1 REVERT JUMPDEST POP JUMP JUMPDEST PUSH1 0x0 DUP2 CALLDATALOAD SWAP1 POP PUSH2 0x990 DUP2 PUSH2 0x96A JUMP JUMPDEST SWAP3 SWAP2 POP POP JUMP JUMPDEST PUSH1 0x0 DUP1 PUSH1 0x0 DUP1 PUSH1 0x0 DUP1 PUSH1 0x0 PUSH1 0xE0 DUP9 DUP11 SUB SLT ISZERO PUSH2 0x9B5 JUMPI PUSH2 0x9B4 PUSH2 0x8FD JUMP JUMPDEST JUMPDEST PUSH1 0x0 PUSH2 0x9C3 DUP11 DUP3 DUP12 ADD PUSH2 0x94B JUMP JUMPDEST SWAP8 POP POP PUSH1 0x20 PUSH2 0x9D4 DUP11 DUP3 DUP12 ADD PUSH2 0x981 JUMP JUMPDEST SWAP7 POP POP PUSH1 0x40 PUSH2 0x9E5 DUP11 DUP3 DUP12 ADD PUSH2 0x981 JUMP JUMPDEST SWAP6 POP POP PUSH1 0x60 PUSH2 0x9F6 DUP11 DUP3 DUP12 ADD PUSH2 0x981 JUMP JUMPDEST SWAP5 POP POP PUSH1 0x80 PUSH2 0xA07 DUP11 DUP3 DUP12 ADD PUSH2 0x981 JUMP JUMPDEST SWAP4 POP POP PUSH1 0xA0 PUSH2 0xA18 DUP11 DUP3 DUP12 ADD PUSH2 0x981 JUMP JUMPDEST SWAP3 POP POP PUSH1 0xC0 PUSH2 0xA29 DUP11 DUP3 DUP12 ADD PUSH2 0x94B JUMP JUMPDEST SWAP2 POP POP SWAP3 SWAP6 SWAP9 SWAP2 SWAP5 SWAP8 POP SWAP3 SWAP6 POP JUMP JUMPDEST PUSH1 0x0 PUSH1 0x20 DUP3 DUP5 SUB SLT ISZERO PUSH2 0xA4E JUMPI PUSH2 0xA4D PUSH2 0x8FD JUMP JUMPDEST JUMPDEST PUSH1 0x0 PUSH2 0xA5C DUP5 DUP3 DUP6 ADD PUSH2 0x94B JUMP JUMPDEST SWAP2 POP POP SWAP3 SWAP2 POP POP JUMP JUMPDEST PUSH2 0xA6E DUP2 PUSH2 0x922 JUMP JUMPDEST DUP3 MSTORE POP POP JUMP JUMPDEST PUSH2 0xA7D DUP2 PUSH2 0x960 JUMP JUMPDEST DUP3 MSTORE POP POP JUMP JUMPDEST PUSH1 0x0 PUSH1 0xE0 DUP3 ADD SWAP1 POP PUSH2 0xA98 PUSH1 0x0 DUP4 ADD DUP11 PUSH2 0xA65 JUMP JUMPDEST PUSH2 0xAA5 PUSH1 0x20 DUP4 ADD DUP10 PUSH2 0xA74 JUMP JUMPDEST PUSH2 0xAB2 PUSH1 0x40 DUP4 ADD DUP9 PUSH2 0xA74 JUMP JUMPDEST PUSH2 0xABF PUSH1 0x60 DUP4 ADD DUP8 PUSH2 0xA74 JUMP JUMPDEST PUSH2 0xACC PUSH1 0x80 DUP4 ADD DUP7 PUSH2 0xA74 JUMP JUMPDEST PUSH2 0xAD9 PUSH1 0xA0 DUP4 ADD DUP6 PUSH2 0xA74 JUMP JUMPDEST PUSH2 0xAE6 PUSH1 0xC0 DUP4 ADD DUP5 PUSH2 0xA65 JUMP JUMPDEST SWAP9 SWAP8 POP POP POP POP POP POP POP POP JUMP JUMPDEST PUSH1 0x0 DUP3 DUP3 MSTORE PUSH1 0x20 DUP3 ADD SWAP1 POP SWAP3 SWAP2 POP POP JUMP JUMPDEST PUSH32 0x546F6B656E56657374696E673A2062656E656669636961727920697320746865 PUSH1 0x0 DUP3 ADD MSTORE PUSH32 0x207A65726F206164647265737300000000000000000000000000000000000000 PUSH1 0x20 DUP3 ADD MSTORE POP JUMP JUMPDEST PUSH1 0x0 PUSH2 0xB5F PUSH1 0x2D DUP4 PUSH2 0xAF2 JUMP JUMPDEST SWAP2 POP PUSH2 0xB6A DUP3 PUSH2 0xB03 JUMP JUMPDEST PUSH1 0x40 DUP3 ADD SWAP1 POP SWAP2 SWAP1 POP JUMP JUMPDEST PUSH1 0x0 PUSH1 0x20 DUP3 ADD SWAP1 POP DUP2 DUP2 SUB PUSH1 0x0 DUP4 ADD MSTORE PUSH2 0xB8E DUP2 PUSH2 0xB52 JUMP JUMPDEST SWAP1 POP SWAP2 SWAP1 POP JUMP JUMPDEST PUSH32 0x546F6B656E56657374696E673A20636C696666206475726174696F6E20657863 PUSH1 0x0 DUP3 ADD MSTORE PUSH32 0x656564732076657374696E67206475726174696F6E0000000000000000000000 PUSH1 0x20 DUP3 ADD MSTORE POP JUMP JUMPDEST PUSH1 0x0 PUSH2 0xBF1 PUSH1 0x35 DUP4 PUSH2 0xAF2 JUMP JUMPDEST SWAP2 POP PUSH2 0xBFC DUP3 PUSH2 0xB95 JUMP JUMPDEST PUSH1 0x40 DUP3 ADD SWAP1 POP SWAP2 SWAP1 POP JUMP JUMPDEST PUSH1 0x0 PUSH1 0x20 DUP3 ADD SWAP1 POP DUP2 DUP2 SUB PUSH1 0x0 DUP4 ADD MSTORE PUSH2 0xC20 DUP2 PUSH2 0xBE4 JUMP JUMPDEST SWAP1 POP SWAP2 SWAP1 POP JUMP JUMPDEST PUSH32 0x4E487B7100000000000000000000000000000000000000000000000000000000 PUSH1 0x0 MSTORE PUSH1 0x11 PUSH1 0x4 MSTORE PUSH1 0x24 PUSH1 0x0 REVERT JUMPDEST PUSH1 0x0 PUSH2 0xC61 DUP3 PUSH2 0x960 JUMP JUMPDEST SWAP2 POP PUSH2 0xC6C DUP4 PUSH2 0x960 JUMP JUMPDEST SWAP3 POP DUP3 DUP3 ADD SWAP1 POP DUP1 DUP3 GT ISZERO PUSH2 0xC84 JUMPI PUSH2 0xC83 PUSH2 0xC27 JUMP JUMPDEST JUMPDEST SWAP3 SWAP2 POP POP JUMP JUMPDEST PUSH32 0x546F6B656E56657374696E673A2076657374696E6720656E642074696D657374 PUSH1 0x0 DUP3 ADD MSTORE PUSH32 0x616D702070726563656465732063757272656E742074696D657374616D700000 PUSH1 0x20 DUP3 ADD MSTORE POP JUMP JUMPDEST PUSH1 0x0 PUSH2 0xCE6 PUSH1 0x3E DUP4 PUSH2 0xAF2 JUMP JUMPDEST SWAP2 POP PUSH2 0xCF1 DUP3 PUSH2 0xC8A JUMP JUMPDEST PUSH1 0x40 DUP3 ADD SWAP1 POP SWAP2 SWAP1 POP JUMP JUMPDEST PUSH1 0x0 PUSH1 0x20 DUP3 ADD SWAP1 POP DUP2 DUP2 SUB PUSH1 0x0 DUP4 ADD MSTORE PUSH2 0xD15 DUP2 PUSH2 0xCD9 JUMP JUMPDEST SWAP1 POP SWAP2 SWAP1 POP JUMP JUMPDEST PUSH32 0x546F6B656E56657374696E673A2072657175657374656420746F6B656E732065 PUSH1 0x0 DUP3 ADD MSTORE PUSH32 0x786365656420746F74616C20746F6B656E730000000000000000000000000000 PUSH1 0x20 DUP3 ADD MSTORE POP JUMP JUMPDEST PUSH1 0x0 PUSH2 0xD78 PUSH1 0x32 DUP4 PUSH2 0xAF2 JUMP JUMPDEST SWAP2 POP PUSH2 0xD83 DUP3 PUSH2 0xD1C JUMP JUMPDEST PUSH1 0x40 DUP3 ADD SWAP1 POP SWAP2 SWAP1 POP JUMP JUMPDEST PUSH1 0x0 PUSH1 0x20 DUP3 ADD SWAP1 POP DUP2 DUP2 SUB PUSH1 0x0 DUP4 ADD MSTORE PUSH2 0xDA7 DUP2 PUSH2 0xD6B JUMP JUMPDEST SWAP1 POP SWAP2 SWAP1 POP JUMP JUMPDEST PUSH32 0x546F6B656E56657374696E673A2076657374696E6720616C7265616479206578 PUSH1 0x0 DUP3 ADD MSTORE PUSH32 0x6973747320666F72207468652062656E65666963696172790000000000000000 PUSH1 0x20 DUP3 ADD MSTORE POP JUMP JUMPDEST PUSH1 0x0 PUSH2 0xE0A PUSH1 0x38 DUP4 PUSH2 0xAF2 JUMP JUMPDEST SWAP2 POP PUSH2 0xE15 DUP3 PUSH2 0xDAE JUMP JUMPDEST PUSH1 0x40 DUP3 ADD SWAP1 POP SWAP2 SWAP1 POP JUMP JUMPDEST PUSH1 0x0 PUSH1 0x20 DUP3 ADD SWAP1 POP DUP2 DUP2 SUB PUSH1 0x0 DUP4 ADD MSTORE PUSH2 0xE39 DUP2 PUSH2 0xDFD JUMP JUMPDEST SWAP1 POP SWAP2 SWAP1 POP JUMP JUMPDEST PUSH1 0x0 PUSH1 0x60 DUP3 ADD SWAP1 POP PUSH2 0xE55 PUSH1 0x0 DUP4 ADD DUP7 PUSH2 0xA65 JUMP JUMPDEST PUSH2 0xE62 PUSH1 0x20 DUP4 ADD DUP6 PUSH2 0xA65 JUMP JUMPDEST PUSH2 0xE6F PUSH1 0x40 DUP4 ADD DUP5 PUSH2 0xA74 JUMP JUMPDEST SWAP5 SWAP4 POP POP POP POP JUMP JUMPDEST PUSH1 0x0 DUP2 ISZERO ISZERO SWAP1 POP SWAP2 SWAP1 POP JUMP JUMPDEST PUSH2 0xE8C DUP2 PUSH2 0xE77 JUMP JUMPDEST DUP2 EQ PUSH2 0xE97 JUMPI PUSH1 0x0 DUP1 REVERT JUMPDEST POP JUMP JUMPDEST PUSH1 0x0 DUP2 MLOAD SWAP1 POP PUSH2 0xEA9 DUP2 PUSH2 0xE83 JUMP JUMPDEST SWAP3 SWAP2 POP POP JUMP JUMPDEST PUSH1 0x0 PUSH1 0x20 DUP3 DUP5 SUB SLT ISZERO PUSH2 0xEC5 JUMPI PUSH2 0xEC4 PUSH2 0x8FD JUMP JUMPDEST JUMPDEST PUSH1 0x0 PUSH2 0xED3 DUP5 DUP3 DUP6 ADD PUSH2 0xE9A JUMP JUMPDEST SWAP2 POP POP SWAP3 SWAP2 POP POP JUMP JUMPDEST PUSH32 0x546F6B656E56657374696E673A206E6F2076657374696E6720666F756E642066 PUSH1 0x0 DUP3 ADD MSTORE PUSH32 0x6F722073656E6465720000000000000000000000000000000000000000000000 PUSH1 0x20 DUP3 ADD MSTORE POP JUMP JUMPDEST PUSH1 0x0 PUSH2 0xF38 PUSH1 0x29 DUP4 PUSH2 0xAF2 JUMP JUMPDEST SWAP2 POP PUSH2 0xF43 DUP3 PUSH2 0xEDC JUMP JUMPDEST PUSH1 0x40 DUP3 ADD SWAP1 POP SWAP2 SWAP1 POP JUMP JUMPDEST PUSH1 0x0 PUSH1 0x20 DUP3 ADD SWAP1 POP DUP2 DUP2 SUB PUSH1 0x0 DUP4 ADD MSTORE PUSH2 0xF67 DUP2 PUSH2 0xF2B JUMP JUMPDEST SWAP1 POP SWAP2 SWAP1 POP JUMP JUMPDEST PUSH32 0x546F6B656E56657374696E673A2076657374696E6720686173206E6F74207374 PUSH1 0x0 DUP3 ADD MSTORE PUSH32 0x6172746564207965740000000000000000000000000000000000000000000000 PUSH1 0x20 DUP3 ADD MSTORE POP JUMP JUMPDEST PUSH1 0x0 PUSH2 0xFCA PUSH1 0x29 DUP4 PUSH2 0xAF2 JUMP JUMPDEST SWAP2 POP PUSH2 0xFD5 DUP3 PUSH2 0xF6E JUMP JUMPDEST PUSH1 0x40 DUP3 ADD SWAP1 POP SWAP2 SWAP1 POP JUMP JUMPDEST PUSH1 0x0 PUSH1 0x20 DUP3 ADD SWAP1 POP DUP2 DUP2 SUB PUSH1 0x0 DUP4 ADD MSTORE PUSH2 0xFF9 DUP2 PUSH2 0xFBD JUMP JUMPDEST SWAP1 POP SWAP2 SWAP1 POP JUMP JUMPDEST PUSH1 0x0 PUSH2 0x100B DUP3 PUSH2 0x960 JUMP JUMPDEST SWAP2 POP PUSH2 0x1016 DUP4 PUSH2 0x960 JUMP JUMPDEST SWAP3 POP DUP3 DUP3 SUB SWAP1 POP DUP2 DUP2 GT ISZERO PUSH2 0x102E JUMPI PUSH2 0x102D PUSH2 0xC27 JUMP JUMPDEST JUMPDEST SWAP3 SWAP2 POP POP JUMP JUMPDEST PUSH32 0x546F6B656E56657374696E673A206E6F20746F6B656E7320746F2072656C6561 PUSH1 0x0 DUP3 ADD MSTORE PUSH32 0x7365000000000000000000000000000000000000000000000000000000000000 PUSH1 0x20 DUP3 ADD MSTORE POP JUMP JUMPDEST PUSH1 0x0 PUSH2 0x1090 PUSH1 0x22 DUP4 PUSH2 0xAF2 JUMP JUMPDEST SWAP2 POP PUSH2 0x109B DUP3 PUSH2 0x1034 JUMP JUMPDEST PUSH1 0x40 DUP3 ADD SWAP1 POP SWAP2 SWAP1 POP JUMP JUMPDEST PUSH1 0x0 PUSH1 0x20 DUP3 ADD SWAP1 POP DUP2 DUP2 SUB PUSH1 0x0 DUP4 ADD MSTORE PUSH2 0x10BF DUP2 PUSH2 0x1083 JUMP JUMPDEST SWAP1 POP SWAP2 SWAP1 POP JUMP JUMPDEST PUSH1 0x0 PUSH1 0x40 DUP3 ADD SWAP1 POP PUSH2 0x10DB PUSH1 0x0 DUP4 ADD DUP6 PUSH2 0xA65 JUMP JUMPDEST PUSH2 0x10E8 PUSH1 0x20 DUP4 ADD DUP5 PUSH2 0xA74 JUMP JUMPDEST SWAP4 SWAP3 POP POP POP JUMP JUMPDEST PUSH1 0x0 PUSH1 0x20 DUP3 ADD SWAP1 POP PUSH2 0x1104 PUSH1 0x0 DUP4 ADD DUP5 PUSH2 0xA65 JUMP JUMPDEST SWAP3 SWAP2 POP POP JUMP JUMPDEST PUSH1 0x0 DUP2 MLOAD SWAP1 POP PUSH2 0x1119 DUP2 PUSH2 0x96A JUMP JUMPDEST SWAP3 SWAP2 POP POP JUMP JUMPDEST PUSH1 0x0 PUSH1 0x20 DUP3 DUP5 SUB SLT ISZERO PUSH2 0x1135 JUMPI PUSH2 0x1134 PUSH2 0x8FD JUMP JUMPDEST JUMPDEST PUSH1 0x0 PUSH2 0x1143 DUP5 DUP3 DUP6 ADD PUSH2 0x110A JUMP JUMPDEST SWAP2 POP POP SWAP3 SWAP2 POP POP JUMP JUMPDEST PUSH1 0x0 PUSH2 0x1157 DUP3 PUSH2 0x960 JUMP JUMPDEST SWAP2 POP PUSH2 0x1162 DUP4 PUSH2 0x960 JUMP JUMPDEST SWAP3 POP DUP3 DUP3 MUL PUSH2 0x1170 DUP2 PUSH2 0x960 JUMP JUMPDEST SWAP2 POP DUP3 DUP3 DIV DUP5 EQ DUP4 ISZERO OR PUSH2 0x1187 JUMPI PUSH2 0x1186 PUSH2 0xC27 JUMP JUMPDEST JUMPDEST POP SWAP3 SWAP2 POP POP JUMP JUMPDEST PUSH32 0x4E487B7100000000000000000000000000000000000000000000000000000000 PUSH1 0x0 MSTORE PUSH1 0x12 PUSH1 0x4 MSTORE PUSH1 0x24 PUSH1 0x0 REVERT JUMPDEST PUSH1 0x0 PUSH2 0x11C8 DUP3 PUSH2 0x960 JUMP JUMPDEST SWAP2 POP PUSH2 0x11D3 DUP4 PUSH2 0x960 JUMP JUMPDEST SWAP3 POP DUP3 PUSH2 0x11E3 JUMPI PUSH2 0x11E2 PUSH2 0x118E JUMP JUMPDEST JUMPDEST DUP3 DUP3 DIV SWAP1 POP SWAP3 SWAP2 POP POP JUMP INVALID LOG2 PUSH5 0x6970667358 0x22 SLT KECCAK256 MULMOD SWAP10 0xA7 SWAP4 0xEE SHL 0xBA DELEGATECALL 0xD7 0x4E 0xF6 0x23 PUSH22 0xA9383EBAFD349D593F8A0D8A886793EDF6AB6B64736F PUSH13 0x63430008120033000000000000 "
		},
		"gasEstimates": {
			"creation": {
				"codeDepositCost": "928800",
				"executionCost": "968",
				"totalCost": "929768"
			},
			"external": {
				"release()": "infinite",
				"setVestingAndRequestTokens(address,uint256,uint256,uint256,uint256,uint256,address)": "infinite",
				"vestings(address)": "infinite"
			},
			"internal": {
				"vestedAmount(struct TokenVesting.Vesting memory)": "infinite"
			}
		},
		"methodIdentifiers": {
			"release()": "86d1a69f",
			"setVestingAndRequestTokens(address,uint256,uint256,uint256,uint256,uint256,address)": "72556783",
			"vestings(address)": "daf49863"
		}
	},
	"abi": [
		{
			"inputs": [],
			"stateMutability": "nonpayable",
			"type": "constructor"
		},
		{
			"inputs": [],
			"name": "release",
			"outputs": [],
			"stateMutability": "nonpayable",
			"type": "function"
		},
		{
			"inputs": [
				{
					"internalType": "address",
					"name": "_beneficiary",
					"type": "address"
				},
				{
					"internalType": "uint256",
					"name": "_cliffDuration",
					"type": "uint256"
				},
				{
					"internalType": "uint256",
					"name": "_vestingDuration",
					"type": "uint256"
				},
				{
					"internalType": "uint256",
					"name": "_start",
					"type": "uint256"
				},
				{
					"internalType": "uint256",
					"name": "_totalTokens",
					"type": "uint256"
				},
				{
					"internalType": "uint256",
					"name": "_requestedTokens",
					"type": "uint256"
				},
				{
					"internalType": "address",
					"name": "_tokenAddress",
					"type": "address"
				}
			],
			"name": "setVestingAndRequestTokens",
			"outputs": [],
			"stateMutability": "nonpayable",
			"type": "function"
		},
		{
			"inputs": [
				{
					"internalType": "address",
					"name": "",
					"type": "address"
				}
			],
			"name": "vestings",
			"outputs": [
				{
					"internalType": "address",
					"name": "beneficiary",
					"type": "address"
				},
				{
					"internalType": "uint256",
					"name": "cliffDuration",
					"type": "uint256"
				},
				{
					"internalType": "uint256",
					"name": "vestingDuration",
					"type": "uint256"
				},
				{
					"internalType": "uint256",
					"name": "start",
					"type": "uint256"
				},
				{
					"internalType": "uint256",
					"name": "totalTokens",
					"type": "uint256"
				},
				{
					"internalType": "uint256",
					"name": "releasedTokens",
					"type": "uint256"
				},
				{
					"internalType": "address",
					"name": "tokenAddress",
					"type": "address"
				}
			],
			"stateMutability": "view",
			"type": "function"
		}
	]
}